:020000040800F2
:10000000005000204D0A0008250A0008270A0008B1
:10001000290A00082B0A00082D0A00080000000029
:100020000000000000000000000000002F0A00088F
:10003000310A000800000000330A0008350A0008F1
:10004000950A0008950A0008950A0008950A000814
:10005000950A0008950A0008950A0008950A000804
:10006000950A0008950A0008950A0008950A0008F4
:10007000950A0008950A0008950A0008950A0008E4
:10008000950A0008950A0008950A0008390A000830
:10009000450A0008950A0008950A0008950A000814
:1000A000950A0008950A0008950A0008950A0008B4
:1000B000950A0008950A0008950A0008950A0008A4
:1000C000950A0008950A0008950A0008950A000894
:1000D000950A0008950A0008950A0008950A000884
:1000E000950A0008950A0008950A0008000000001B
:1000F0000000000000000000000000000000000000
:0C01000000000000000000005FF808F1A3
:10010C0010B5054C237833B9044B13B10448AFF345
:10011C0000800123237010BDA80100200000000006
:10012C007045000808B5034B1BB103490348AFF3F6
:10013C00008008BD00000000AC01002070450008E4
:10014C0073B50646A5200C46154600F034FB08B1E5
:10015C00012014E0304600F02EFB0028F8D184B9C1
:10016C000023022101A8ADF8043000F00FFB002899
:10017C00EED15A2000F01FFB003818BF012002B04E
:10018C0070BD002DECD02946204600F0FFFA002867
:10019C00E6D0DDE700221146FFF7D2BF07B50122FA
:1001AC008DF807000DF10701F020FFF7C9FF03B030
:1001BC005DF804FB014610B50C4800F0B7FA80B9A5
:1001CC004FF4807270200949FFF7BAFF58B105242B
:1001DC002046FFF7E3FF053C18BF0124044B1C60CD
:1001EC0010BD0324F4E76124F8E700BFC40100202C
:1001FC00D802002037B5044600F0E8FA48B144B103
:10020C00F023237000230221A36001A800F0E5FA7B
:10021C0008B101201CE09DF80430A52BF9D19DF804
:10022C000530712B23701ED014D8602B1BD0702B73
:10023C0016D0032B17D00023A380032101A800F0B4
:10024C00CCFA0028E5D19DF806005A3818BF0120D9
:10025C0003B030BD802B06D0F02B04D0722BEAD12A
:10026C004FF4807100E00121044DA180284600F07C
:10027C00B4FA0028CDD1A560DFE700BFC40100208F
:10028C002DE9F843A04C236853B100F041FC9F4D7D
:10029C002B68984226D90720FFF780FF00232360A4
:1002AC009B4E01224FF480519A4800F087FD304656
:1002BC00FFF7A0FF054698B93078012810D1FFF759
:1002CC0069FF2A464FF48051924800F077FD0323D2
:1002DC00236000F01DFC8D4B00F59C50083018601D
:1002EC00BDE8F8832368602B67D010DC032B09DC96
:1002FC00002B09DB013B022BD2D8DFE813F04000C6
:10030C0015012700112B71D000232360E8E7702B17
:10031C0000F0C080802B00F09F80612BF4D17C4ECC
:10032C003046FFF767FF0028DAD13378112B74D1F0
:10033C00794A138803F580739BB21380774A12882D
:10034C009A4267D80820FFF729FF68E0704E3046C4
:10035C00FFF750FF05460028C2D13378032BBFD1DD
:10036C00B368187800F0B4F920B91020FFF712FF29
:10037C000123CAE70220FFF711FF2560B0E7644EA6
:10038C003046FFF737FF0028AAD12268337852B1E4
:10039C00012AB9D1602B08D0802B06D09A1E012AD5
:1003AC0003D90F2B00E0012BAED100F0B1FB00F50F
:1003BC009C50083033782860A7E7554B9B681A7817
:1003CC00574B1B789A420DD10022534B10201A80A8
:1003DC00FFF7E0FE00F09CFB00F59C500830112369
:1003EC00286092E70220FFF7D9FEC1E7484E30465D
:1003FC00FFF700FF054600287FF472AF3378612BBE
:10040C0006D1454B1888FFF7D5FE464B1D8067E794
:10041C000120B0E71123236010E0122B01D101233E
:10042C00F9E7404EF12B33880FD1092B0FD83A4BFB
:10043C001888FFF7BFFE33880133338000F068FB68
:10044C0000F59C50083028604AE7092B02D9062099
:10045C00FFF7A4FE0023DEE72D4B9B681A78304B88
:10046C001B789A420FD100222B4B1A8000F050FBC4
:10047C00702300F59C500830286023601020BDE8E4
:10048C00F843FFF787BE012302202360BDE8F84341
:10049C00FFF784BE1E4E3046FFF7ACFE0746002821
:1004AC007FF41EAF3378702B29D1DFF86C80DFF826
:1004BC006C90B8F80010B388B9F800200B44934244
:1004CC0018DCB06800F03CF990B9B8F80020B3889B
:1004DC001344B9F800209BB29A42A8F8003003D814
:1004EC001220FFF757FE9AE71120FFF753FEA5E7FE
:1004FC00042028E70820FFF751FE27609EE7F02B29
:10050C00A8D00120A4E700BFD802002000000020E2
:10051C00C8020020000C0140C4020020DC020020B4
:10052C00DE020020D40200201120FFF733FE00F081
:10053C00EFFA00F59C500830286019E7084B0128A9
:10054C0033F8303004D0032806D0580080B27047FE
:10055C00C1F302210B43F8E7C1F30421FAE700BF12
:10056C00040000202DE9FF470446994688461746AB
:10057C0000F0CEFA394600F114052046FFF7DEFFF5
:10058C000646124B03EBC403B3F806A00523012265
:10059C0031460F4801F068F8044638B100F0B8FA5B
:1005AC00A842F3D3204604B0BDE8F08700F0B0FABF
:1005BC002D1A53463A463146CDE901950448CDF8FB
:1005CC00008000F083FE0446ECE700BF040000202E
:1005DC00E00200202DE9FF47DDF834A006460F4667
:1005EC009046994600F094FA0446052301223146C0
:1005FC000F4801F039F8054640B100F089FA001BAC
:10060C005045F2D3284604B0BDE8F08700F080FADC
:10061C005444BDF83030241ACDE900933A46434691
:10062C0031460348029400F0E1FE0546EAE700BFBC
:10063C00E002002007B501238DF807100DF107012A
:10064C00FFF790FF03B05DF804FB0000024B03EBD7
:10065C00C0039B88FFF786BF040000202DE9F04102
:10066C00064614460D46D7180A4BBFB203EBC0031F
:10067C00B3F80480A74202D80020BDE8F0812946D7
:10068C003046A2B2FFF7E2FF45440028F5D14444BE
:10069C00F0E700BF04000020F7B504461F460E46E5
:1006AC0015461146094AFFF749FF02EBC40294882C
:1006BC003346B7FBF4F404EB84040A34CDE900743C
:1006CC002946D288FFF786FF03B0F0BD0400002056
:1006DC0070B5124E044636F83010322349004FF4F0
:1006EC007A720F4889B200F0BFFF054640B9032C5F
:1006FC0008D00C4B1C7006EBC40462880A4B1A80A1
:10070C00284670BD41F6FF7202212046FFF792FF8A
:10071C0010F0FF00EDD00546F2E700BF040000200A
:10072C00E0020020DE020020DC0200200A46014626
:10073C0002484FF480730078FFF7AEBFDE02002052
:10074C0030B50A4604460D4601460F48C1B04FF479
:10075C0080730078FFF782FFA0B901460090FC225D
:10076C0001A803F0F7FE29466846FFF7DFFF48B9FA
:10077C004FF480726946204603F0DCFE003818BF47
:10078C000120800041B030BDDE020020F8B50646E5
:10079C000F4600F0BDF90224054600F0B9F9431BE1
:1007AC00C72B06D83946304603F088FC044600288F
:1007BC00F3D12046F8BD07B501218DF807000DF1E6
:1007CC000700FFF7E3FF03B05DF804FB08B503F087
:1007DC008BFC003818BF012008BDF8B506460C4646
:1007EC0000F096F90746FCB100F092F9C01BC7283F
:1007FC0001D90120F8BD03F077FC20B90025641B5A
:10080C00A4B22E44EFE7B4F5007F254628BF4FF481
:10081C000075854228BF0546ADB22946304603F027
:10082C006FFC0028EAD1EAE72046E3E730B595B043
:10083C00142200210CA803F08DFE14221025002197
:10084C000DEB020003F086FE2A46002101A803F0FE
:10085C0081FE02244FF480330122CDE91143CDE90E
:10086C000A234FF4E0130AA80E92139301F01EFE14
:10087C0008B172B6FEE70F23CDE905344FF480635F
:10088C000790CDE90830214605A801F0E5FF08B135
:10089C0072B6FEE7049001A8019502F089F808B140
:1008AC0072B6FEE715B030BD00B589B000F012F994
:1008BC00FFF7BCFF102200210DEB020003F04AFEF3
:1008CC00254B4FF480519A69244842F020029A61DA
:1008DC009A69002402F020020192019A9A694FF45D
:1008EC00805542F008029A619A69012602F00802CA
:1008FC000292029A9A6942F004029A619B6901225F
:10090C0003F004030393039B00F058FA02231348EB
:10091C0004A9CDE90643CDE9045600F075F9104859
:10092C00104B114AC0E90244C0E900234FF4804344
:10093C00C0E90644C0E90434046200F01FFC08B1AD
:10094C0072B6FEE703F02EFB32462946034800F050
:10095C0035FAFFF795FCFCE700100240000C014053
:10096C00E0020020A08601000058004072B6FEE7AD
:10097C000E4B82B09A6942F001029A619A6902F0B8
:10098C0001020092009ADA6942F08052DA61DB6966
:10099C00074A03F080530193019B536823F0E063F3
:1009AC0043F00073536002B0704700BF0010024068
:1009BC000000014010B5044686B01022002102A8A8
:1009CC0003F0C8FD2268114B9A421DD1104C4FF414
:1009DC004062A3690F4843F00803A361A36902A90D
:1009EC0003F008030093009B1223CDE90223032399
:1009FC00059300F009F9E36943F48003E361E369CB
:100A0C0003F480030193019B06B010BD0058004015
:100A1C0000100240000C0140FEE7FEE7FEE7FEE797
:100A2C00FEE770477047704700F066B8014800F069
:100A3C0073BF00BF0C0E0020FFF7F8BF704700001B
:100A4C00002103E00B4B5B58435004310A480B4B1D
:100A5C0042189A42F6D30A4A02E0002342F8043BB9
:100A6C00084B9A42F9D3FFF7E9FF03F03FFDFFF77C
:100A7C001BFF70470046000800000020A801002062
:100A8C00A801002018130020FEE7000038B50E4B1B
:100A9C0005461A784FF47A73B3FBF2F30B4A1068DD
:100AAC00B0FBF3F000F09CF8044658B90F2D09D8B0
:100ABC00024629464FF0FF3000F054F82046044B14
:100ACC001D6038BD0120FCE7300000202C00002008
:100ADC0034000020074A08B51368032043F01003C4
:100AEC00136000F02DF80020FFF7D0FFFFF740FF58
:100AFC00002008BD00200240034A044B11681B78FB
:100B0C000B441360704700BF3403002030000020FA
:100B1C00014B1868704700BF3403002038B50446F9
:100B2C00FFF7F6FF0546631C1EBF044B1B78E41849
:100B3C00FFF7EEFF431BA342FAD338BD3000002071
:100B4C0007490302CA6803F4E06322F4E06212046A
:100B5C00120C134343F0BF6343F40033CB60704774
:100B6C0000ED00E0154B30B5DC68C4F30224C4F191
:100B7C000703251D042B28BF0423062D4FF0FF353A
:100B8C0094BF0024033C05FA03F321EA0303A540B8
:100B9C0022EA0502A340002843EA0203ACBF00F19D
:100BAC006040074A4FEA0313DBB2ABBF00F561406C
:100BBC0000F00F0080F80033135430BD00ED00E05E
:100BCC0014ED00E0002807DB01234109034A00F083
:100BDC001F00834042F82130704700BF00E100E065
:100BEC000138B0F1807F0BD24FF0E023F021054AA1
:100BFC00586182F823100020072298611A6170470F
:100C0C000120704700ED00E02DE9F74F0022164659
:100C1C00644F654BDFF894C1DFF894E10D6835FA49
:100C2C0006F402D103B0BDE8F08F4FF0010808FACA
:100C3C0006F805EA080438EA05057AD14D68032D53
:100C4C0007D8013D022D00F28780DFE805F0959A68
:100C5C00A000122D00F098806DD8112D00F08E8020
:100C6C00FF2C98BF82464FF00F0988BF00F1040A91
:100C7C004FEA8605DAF8008088BF203D09FA05FBAB
:100C8C0028EA0B0802FA05F548EA0505CAF80050EF
:100C9C00D1F804A01AF0805F4BD0BD6926F0030890
:100CAC0045F00105BD61BD6908F1804805F00105FD
:100CBC00019508F5803806F0030B019D4FEA8B0B6C
:100CCC00D8F8085009FA0BF925EA0909394DA84258
:100CDC0061D005F58065A8425FD005F58065A84216
:100CEC005DD005F58065A8420CBF0325042505FAE7
:100CFC000BF545EA0905C8F808501D681AF4803F41
:100D0C0014BF2543A5431D605D681AF4003F14BF52
:100D1C002543A5435D609D681AF4801F14BF2543CD
:100D2C00A5439D60DD681AF4001F14BF2543A5433D
:100D3C00DD60013672E7DFF880904D450CD017D896
:100D4C00A9F580194D4507D009F570294D4503D0FB
:100D5C00A9F580194D4583D18A68D2B1012A08BF03
:100D6C00C0F810804FF0080218BFC0F8148077E765
:100D7C006545F1D07545EEE7CA6871E7CA6804327B
:100D8C006EE7CA6808326BE7CA680C3268E7002263
:100D9C0066E7042264E70025A9E70125A7E70225F9
:100DAC00A5E700BF00100240000401400000311014
:100DBC000000321000080140000022100AB101614D
:100DCC0070470904FBE7016800224B6913F4806348
:100DDC0010D06FF480634B612023026380F83D30A8
:100DEC0080F83E20036C80F83C2043F0040303643D
:100DFC0001207047184670472DE9F84606460F4605
:100E0C0091461D464FEA114A3368BAF1010F0CBFE7
:100E1C005C699C6927EA0404A4B2B4FA84F46409FA
:100E2C00A14501D0002017E06A1CEED0FFF770FE40
:100E3C00089BC01AA84201D8002DE5D1002320221E
:100E4C000120336386F83D2086F83E30326C86F8FC
:100E5C003C3042F020023264BDE8F8862DE9F041C6
:100E6C0004460F46164698462568686927EA00002E
:100E7C0080B2B8B16B695A0516D52B68202243F4A1
:100E8C0000732B606FF480636B610023236384F821
:100E9C003D2084F83E30226C42F004020120226492
:100EAC0084F83C30BDE8F081731CDED0FFF730FED7
:100EBC00A0EB0800B04201D8002ED5D1002320228F
:100ECC00236384F83D2084F83E30226C42F02002EB
:100EDC00E4E770B504460D46164621684B6913F0DD
:100EEC00400301D0002010E04A69D2060ED56FF005
:100EFC0010024A612022236384F83D2084F83E309E
:100F0C00226C0120226484F83C3070BDFFF700FE97
:100F1C00801BA84201D8002DDFD10023202223639F
:100F2C0084F83D2084F83E30226C42F02002E8E741
:100F3C0070B504460D46164623685B691B0601D541
:100F4C00002070BD2046FFF73EFFA8B96A1CF3D005
:100F5C00FFF7DEFD801BA84201D8002DECD1002349
:100F6C002022236384F83D2084F83E30226C84F8E0
:100F7C003C3042F0200222640120E2E72DE9F043EC
:100F8C00154602689946136885B043F48073136064
:100F9C00DDE90C780E463B4600224FF00111CDF8EE
:100FAC0000800446FFF728FF236838B11B68DB0577
:100FBC0002D54FF40073236403200AE006F0FE060A
:100FCC001E613A46434620461749FFF747FF18B1C2
:100FDC00012005B0BDE8F083236803905A693946B7
:100FEC0003929B69424603932046039BFFF7A0FFA5
:100FFC0040B1236C042B01BF2268136843F40073C7
:10100C001360E5E7B9F1010F236802D1EDB21D6160
:10101C00DFE72A0A1A61394642462046FFF788FF65
:10102C000028E6D12368F1E7020001002DE9FF4713
:10103C009A46DDE90C78036815461A680E4642F4A8
:10104C0080621A601A684FF0011142F480721A60C3
:10105C003B460022CDF800800446FFF7CDFE236806
:10106C0048B11B68DB0502D54FF4007323640320E1
:10107C0004B0BDE8F0875FFA86F906F0FE061E6143
:10108C003A46434620462949FFF7E8FE08B10120BD
:10109C00EEE7236803905A69394603929B694246EE
:1010AC0003932046039BFFF743FF40B1236C042BB3
:1010BC0001BF2268136843F400731360E7E7BAF1C9
:1010CC00010F23681AD1EDB24246394620461D6104
:1010DC00FFF72EFF02460028E8D1216820460B6856
:1010EC0043F480730B603B464FF00111CDF8008048
:1010FC00FFF782FE226860B11368B3E72A0A1A610F
:10110C00394642462046FFF713FF0028CED123680C
:10111C00D9E749F001031361204643463A46034997
:10112C00FFF79CFE003818BF0120A1E70200010068
:10113C0070B504460D46164623685B695B0701D5FE
:10114C00002070BD2046FFF73EFEA8B96A1CF3D004
:10115C00FFF7DEFC801BA84201D8002DECD1002348
:10116C002022236384F83D2084F83E30226C84F8DE
:10117C003C3042F0200222640120E2E770B50446C4
:10118C0008B9012070BD90F83D3003F0FF021BB987
:10119C0080F83C20FFF70EFC242384F83D302368B4
:1011AC001A6822F001021A601A6842F400421A60AE
:1011BC001A6822F400421A6001F0EAFB3F4B6568A2
:1011CC009D4294BF3E4B3F4B98428CBF0023012362
:1011DC00002BD6D1394E3C4BB542B0FBF3F388BF54
:1011EC004FF496762268516821F03F0141EA0301E1
:1011FC0082BF73434FF47A76B3FBF6F35160116AF6
:10120C00013321F03F010B431362D169431E2B487C
:10121C0021F44F41854221F0FF0132D86D00B3FB20
:10122C00F5F340F6FC700133034242D0C3F30B03D9
:10123C001943D1611168D4E9073021F0C00103438F
:10124C000B4313609168D4E9030321F40341034376
:10125C0021F0FF010B439360D168D4E9053021F0F4
:10126C00FF0103430B43D3601368002043F00103D9
:10127C0013602023206484F83D30206384F83E0002
:10128C0080E7A06850B905EB4505B3FBF5F30133D6
:10129C00C3F30B037BB143F40043C9E71920684344
:1012AC00B3FBF0F30133C3F30B0323B143F440431B
:1012BC00BEE70423BCE70123BAE700BFA086010008
:1012CC007F841E00FF083D0040420F002DE9F743CC
:1012DC00044699460F4690460C9EFFF719FC94F86D
:1012EC003D300546202B03D0022003B0BDE8F0832F
:1012FC0000901923012220463A49FFF77DFD002872
:10130C00F2D194F83C30012BEED00123206884F804
:10131C003C3003684246D90758BF036839465CBF66
:10132C0043F001030360036823F40063036021238B
:10133C0084F83D30402384F83E30002323640A9B1C
:10134C0020466362BDF82C30CDE900656385638D62
:10135C002385254BE3624B46FFF710FE00282AD06D
:10136C000120C2E7FFF7E4FD40B1236C042B01BF61
:10137C002268136843F400731360F1E7636A27680B
:10138C001A4612F8011B39616262628D218D013A95
:10139C0092B262857A69481E80B2520720850AD5BE
:1013AC0048B15A7802333A616362638D0239013B6A
:1013BC009BB221856385238D2A4631462046002B1E
:1013CC00D0D1FFF7B5FE0028CFD12268136843F4C3
:1013DC0000731360202384F83C0084F83D3084F8BB
:1013EC003E0082E7020010000000FFFF2DE9F043F1
:1013FC0099460023044689B003930D469046129FEC
:10140C00FFF786FB94F83D300646202B04D00225CE
:10141C00284609B0BDE8F08300901923012220462C
:10142C008D49FFF7E9FC0028F1D194F83C30012BF1
:10143C00EDD00123206884F83C3003682946DB0793
:10144C0058BF036842465CBF43F001030360036866
:10145C0023F400630360222384F83D30402384F896
:10146C003E3000232364109B20466362BDF8443059
:10147C00CDE900766385638D2385784BE3624B461B
:10148C00FFF7D4FD054608B10125C1E7228D23687D
:10149C00C2B904905A6904929A690492049A1A681F
:1014AC0042F400721A60DFF8B881DFF8B891238D2E
:1014BC00002B37D1202284F83C3084F83D2084F86E
:1014CC003E30A5E7012A11D11A6822F480621A6015
:1014DC0072B6236805905A6905929A690592059A25
:1014EC001A6842F400721A6062B6DCE7022A1A68C3
:1014FC000ED142F400621A6072B6236806905A69E3
:10150C0006929A690692069A1A6822F48062EAE7B1
:10151C0042F480621A6007905A6907929B6907939C
:10152C00079BC0E7032B78D8012B15D132463946DF
:10153C002046FFF7CEFC0028A6D123681A69636AFF
:10154C001A70636A01336362238D013B2385638DBB
:10155C00013B9BB26385AAE7022B4FF000023B468E
:10156C0041462046009618D1FFF746FC00288BD147
:10157C0072B623681A6842F400721A601A69636AB8
:10158C001A70636A01336362238D013B2385638D7B
:10159C00013B9BB2638562B6CFE7FFF72DFC0028B9
:1015AC007FF472AF2268136823F48063136072B601
:1015BC0046F2A81123681A69636A1A70626A531C8E
:1015CC006362238D013B2385638D013B9BB2638555
:1015DC00D9F80030B3FBF1F323214B430393039B66
:1015EC00013B0393039B6BB92022236384F83D20BA
:1015FC0084F83E30226C42F02002226462B684F8F9
:10160C003C3041E7236859694807E8D5196841F42B
:10161C00007119601B695370B3E732463946204696
:10162C00FFF757FC00287FF42FAF23681A69636A11
:10163C001A70626A531C6362238D013B2385638D90
:10164C00013B9BB263852368596949077FF52FAF2E
:10165C001B69537075E700BF020010000000FFFF0C
:10166C00040001002C0000202DE9F04F044685B049
:10167C001E460F469146FFF74BFA94F83D3005464F
:10168C00202B03D0022005B0BDE8F08F0090192369
:10169C00012220464C49FFF7AFFB0028F2D194F809
:1016AC003C30012BEED0012384F83C3023684FF002
:1016BC00010A1A68DFF810B1D20758BF1A6807F090
:1016CC00FE075CBF42F001021A601A6822F4006245
:1016DC001A60242384F83D3000232364A3F580335F
:1016EC00E36222684FF001111368204643F48073C3
:1016FC001360334600220095FFF77EFB236838B158
:10170C001B68DB0502D54FF4007323640320BAE792
:10171C001F61FFF7FDF94FF0A008054623685A69D1
:10172C005B69C2F34002C3F3802394F83D10A029F7
:10173C0001D013431DD04FF02008236884F83D805E
:10174C005A6912F0020F1A6842F400721A6025D01E
:10175C00002203925A69204603929B69012203934B
:10176C00039B194919230095FFF746FB88B101200B
:10177C0089E7FFF7CDF9401BB04200D80EB984F8C9
:10178C003D8023685A695B69C2F34002C3F380232E
:10179C00CBE784F83D8084F83C0074E76FF48062FA
:1017AC0059465A612046192301220095FFF724FB64
:1017BC000028DCD10AF1010ACA4592D384F83D8095
:1017CC0084F83C00D3E700BF02001000F0B50446DB
:1017DC0087B010B390F8A93203F0FF021BB980F860
:1017EC00A82202F06FFD032325466E4684F8A93229
:1017FC0055F8100B01F066F90FCD0FC62B68271D9D
:10180C003360264697E80E0056F8100B01F04AF9A3
:10181C00054620B1022384F8A93201254CE001468B
:10182C00206801F059F929464FF0010E2825084689
:10183C00D4F804C0CAB2944501F101011BD80023AD
:10184C0028251946D8B2844503F1010320D8EC466B
:10185C0035460FCDACE80F002B68CCF8003097E87C
:10186C000E00206801F03AF901230546E8B1022286
:10187C0084F8A922D1E705FB0243C3E90E0083F8E3
:10188C0029E083F82820DA8683F82B001864D1E746
:10189C0005FB0042C2E95E1182F8691182F8680109
:1018AC0082F86B11C2F88011CCE784F82400206810
:1018BC0084F8A93201F0AEFB284607B0F0BD38B56C
:1018CC0090F8A8320446012B10D0012580F8A852BC
:1018DC00006801F0EEF82946204602F006FE20686A
:1018EC0001F096FB002084F8A80238BD0220FCE72A
:1018FC0010B590F8A8220446012A0BD0012280F8DA
:10190C00241080F8A822006801F07CFB002084F8E9
:10191C00A80210BD0220FCE72DE9F04F044685B06B
:10192C00006801F079FB010409D5DFF80C93DFF8AE
:10193C000C832068B0F844301D0400F1C18020688D
:10194C0001F06AFB42050FD522682046B2F84430FC
:10195C0023F480631B041B0CA2F8443002F0F5FC4A
:10196C0000212046FFF7C4FF206801F055FB41041D
:10197C0008D52268B2F8443023F480431B041B0CB6
:10198C00A2F84430206801F047FB820408D5226895
:10199C00B2F8443023F400531B041B0CA2F844305F
:1019AC00206801F039FBC3041CD522682046B2F82C
:1019BC00403023F004031B041B0CA2F84030B2F897
:1019CC00403023F008031B041B0CA2F8403002F03B
:1019DC00DFFC2268B2F8443023F480531B041B0C48
:1019EC00A2F84430206801F017FB070546D568467D
:1019FC002368064619461A4603F1200532F8047B83
:101A0C00954226F8027BF9D1B3F8402092B242F00D
:101A1C000102A3F84020B3F8402022F00102120486
:101A2C00120CA3F84020B3F844205605FBD5B3F8AC
:101A3C00442022F480621204120CA3F8442030F8E3
:101A4C00022B21F8042B8D42F9D1B3F8402020460B
:101A5C0092B242F00802A3F84020B3F8442022F4DA
:101A6C0000621204120CA3F84420B3F8402092B286
:101A7C0042F00402A3F8402002F07AFC206801F046
:101A8C00CBFA82050BD522682046B2F8443023F4F9
:101A9C0000731B041B0CA2F8443002F052FC2068AB
:101AAC0001F0BAFAC30508D52268B2F8443023F421
:101ABC0080731B041B0CA2F8443005B0BDE8F08FFA
:101ACC00B0F84460B1B216F00F0640F0C18011F0CE
:101ADC0010012DD103889BB203EA090343F40043A0
:101AEC000380B0F8503094F828209BB203EBC2036B
:101AFC0000EB4303B3F80434E26BC3F309031A4459
:101B0C0063642046E26302F014FC94F82430002B4A
:101B1C003FF40FAF226C2168002A7FF40AAF94F8CF
:101B2C00243043F08003A1F84C3084F8242000E7E3
:101B3C000588ABB215F4006521D0B0F8503094F89C
:101B4C0068219BB203EBC20300EB4303B3F80C34E4
:101B5C00B4F86E21C3F30903C4F8843104F52C7175
:101B6C0001F0F4FC22682046138823F070031B0557
:101B7C001B0D43F08003138002F0CCFBD9E61B0451
:101B8C007FF5D7AE038823F070031B051B0D43F0C4
:101B9C0080030380B0F8503094F868219BB203EBBB
:101BAC00C20300EB4303B3F80C34C3F30903C4F8CA
:101BBC0084318BB1D4F87C1171B1B4F86E2101F081
:101BCC00C5FCD4F87C31D4F8842129461344204632
:101BDC00C4F87C3102F0A4FB21680B881F053FF58B
:101BEC00A8AEB1F85030D4F878519BB201F20C4049
:101BFC00CDB9C25A22F4F8421204120CC252C25A83
:101C0C0092B242F40042C2520B8823F4804323F078
:101C1C0070031B041B0C83F4405343F4004343F048
:101C2C0080030B8085E63E2D0AD86A08EE0748BF74
:101C3C000132920292B2E6E70F8FFFFF0080FFFFA6
:101C4C006A09ED0608BF02F1FF3248EA8222F1E789
:101C5C0030F8263019049FB240F1EB80282130F87F
:101C6C00263001FB064123F070031B051B0D43F0CE
:101C7C00800320F8263091F8743100F5806CB3B9EC
:101C8C00B0F8503091F868219BB2063303EBC203D5
:101C9C003CF81350C5F30905002D00F0AE802B461F
:101CAC00B1F86E21D1F87C1101F050FCA5E091F84F
:101CBC006B2191F86831022A7ED1B0F850504FEA6E
:101CCC00C30BADB217F4804AD1F880215D4407F004
:101CDC00400E39D002353CF81550C5F30905954234
:101CEC0013D90022C1F8802130F8232022F480423D
:101CFC0022F070021204120C82F4005242F40042E0
:101D0C0042F0800220F8232004E0521BC1F880210D
:101D1C00002AE9D0BEF1000F0DD030F8232022F4B8
:101D2C00E04222F070021204120C42F4004242F023
:101D3C00C00220F82320002D5FD0282101FB064192
:101D4C002B46B1F87021ADE706353CF81550C5F3BC
:101D5C000905954212D9C1F880A130F8232022F44C
:101D6C00804222F070021204120C82F4005242F4EF
:101D7C00004242F0800220F8232004E0521BC1F8FC
:101D8C008021002AE9D0BEF1000F0DD130F82320BC
:101D9C0022F4E04222F070021204120C42F40042CF
:101DAC0042F0C00220F823203DB3282101FB06415C
:101DBC002B46B1F8722175E730F8232022F4E0426B
:101DCC0022F070021204120C42F4004242F0C002E3
:101DDC0020F8232091F8683130F82320DB0012F42E
:101DEC00804FB0F8502092B256D0023213443CF8D7
:101DFC001350C5F30905002DA2D128217143631896
:101E0C00D3F884212A44C3F88421D3F87C212A44B2
:101E1C00C3F87C21D3F880211AB1D3F878319D42D4
:101E2C0043D2282303FB0643204693F8681102F0A3
:101E3C0077FA3A0620687FF57CAD282530F82630F5
:101E4C0005FB06459BB203EA090343F4004320F863
:101E5C00263095F82B3095F82810032B04D01BB1A5
:101E6C00022B3AD1FB0538D42825B0F8503005FBAD
:101E7C0006429BB2023303EBC10300EB4303B3F8FE
:101E8C0000C4176CCCF3090C674515D800231364F8
:101E9C00204602F04EFA4CE5063213443CF813503F
:101EAC00C5F30905002DA8D082E701F5B4712068AF
:101EBC00214401F0C7F8BCE7A7EB0C071764002F0F
:101ECC00E6D006FB0555D16B536C61446344D1637A
:101EDC005364611901F0B6F82BE5282303FB064384
:101EEC0017F040021B6C4FEAC10A00F5806E07F434
:101EFC00804700F0E780B0F85020BFB292B2524455
:101F0C0002323EF812C02822CCF3090C9C4528BFA3
:101F1C00002302FB064238BFA3EB0C031364002B17
:101F2C0051D195F82920002A3AD1B0F8502000F26E
:101F3C00044692B20B011644F25A22F4F8421204EF
:101F4C00120CF252F25A92B242F40042F252B0F82F
:101F5C00502000F20C4092B21044C25A22F4F842C3
:101F6C001204120CC252C25A92B242F40042C25231
:101F7C00204602F0DEF9002F00F0E78095F82810DB
:101F8C00226832F8213023F4E04323F070031B0461
:101F9C001B0C43F4404343F0800322F82130D4E07F
:101FAC00012AE5D1B0F850C000F204461FFA8CFCAF
:101FBC000A016644B352B0F8506000F20C40B6B25D
:101FCC0030448352D4E76FB130F8213023F4E0432E
:101FDC0023F070031B041B0C43F4404343F08003B9
:101FEC0020F82130282303FB064393F84C20012AC8
:101FFC0040F0AB80DA6BD3F848E002EB0C075A6C7C
:10200C00DF6362445A649A6B964529D3AEEB020E99
:10201C00C3F848E095F829C093B2BCF1000F44D145
:10202C00B0F850E000F2044C1FFA8EFEF4440901A3
:10203C001ABB3CF8012022F4F8421204120C2CF8C2
:10204C0001203CF8012092B242F400422CF801200D
:10205C00282202FB0642128E394600F0E3FF74E0A0
:10206C00BEF1000F03D1624683F84CE0D2E70022A8
:10207C0083F84C209A647246CCE73E2A0CD84FEA7F
:10208C00520ED20748BF0EF1010E4FEA8E2E1FFAE8
:10209C008EFE2CF801E0DBE74FEA521ED20608BF99
:1020AC000EF1FF3E48EA8E2EF1E7BCF1010FCFD1C5
:1020BC00B0F850C000F204421FFA8CFC62440901D3
:1020CC005352C5E7B0F850C0BFB21FFA8CFCD444D1
:1020DC000CF1060C3EF81CC0CCF3090C9C4598BFC7
:1020EC00A3EB0C02282303FB06431A64002A52D1EB
:1020FC0095F82930002B3CD1B0F8502000F2044662
:10210C0092B20B011644F25A22F4F8421204120C49
:10211C00F252F25A92B242F40042F252B0F850200B
:10212C0000F20C4092B21044C25A22F4F84212044B
:10213C00120CC252C25A92B242F40042C25220460F
:10214C0002F0F7F8002F3FF419AF95F82810226829
:10215C0032F821309BB223F4E04323F0400383F0A8
:10216C00300343F4004343F0800322F82130FFF79F
:10217C00E0BB012BE3D1B0F850C000F204461FFACB
:10218C008CFC66440B01F252B0F8506000F20C402B
:10219C00B6B23044D2E76FB930F8213023F4E043C3
:1021AC0023F070031B041B0C43F4404343F08003E7
:1021BC0020F82130282202FB064292F84C30012BE9
:1021CC00C3D1536CD76B6344D2F848E05364936B20
:1021DC0067449E45D76323D3AEEB030EC2F848E0A9
:1021EC0095F829201FFA83FC002A3ED1B0F850E064
:1021FC0000F20C421FFA8EFE72440901EBB9535ADD
:10220C0023F4F8431B041B0C5352535A9BB243F454
:10221C0000435352282303FB06466346728E1BE78A
:10222C00BEF1000F03D1634682F84CE0D8E70023DF
:10223C00936482F84C307346D2E73E2B0CD84FEAAD
:10224C00530EDB0748BF0EF1010E4FEA8E2E1FFA1C
:10225C008EFE22F801E0DDE74FEA531EDB0608BFD5
:10226C000EF1FF3E48EA8E2EF1E7012AD2D1B0F8EA
:10227C00502000F20C4392B213440A0123F802C01E
:10228C00C8E700BF11F0800F70B5054601F00700DC
:10229C004FF028011CD0012400FB011129444C7083
:1022AC000A614A780870CB7002B1C881022B04BF56
:1022BC0000230B7195F8A832012B13D00123286849
:1022CC0085F8A83200F01EFC002085F8A80270BD2D
:1022DC00002601FB00F404F5B4712C44294484F865
:1022EC006961DDE70220F2E711F0800F10B501F013
:1022FC00070204464FF0280113D0012302FB011101
:10230C0001444B700A7094F8A832012B13D00123AE
:10231C00206884F8A83200F039FD002084F8A80267
:10232C0010BD01FB02F303F5B4710144034400201A
:10233C0083F86901E6E70220F2E770B5282400264D
:10234C0001F007014C43051985F8681104F5B471C7
:10235C000144C5E95F23C5F8846185F869610068AB
:10236C0000F070FE304670BD282301F0070103FB1E
:10237C000100D0F88401704770B501F007052821E1
:10238C0001FB05040026C4E90F23012205FB011102
:10239C0084F84C200144A364666484F8292084F8F2
:1023AC002850006800F04EFE304670BD38B54368CA
:1023BC0001F007059D42044628D811F0800F4FF01C
:1023CC0028031AD005FB0333C11801234B700123DA
:1023DC000D708B7094F8A8229A4219D0206884F85A
:1023EC00A83200F0A6FD25B9206804F52C7100F088
:1023FC0017FE002084F8A80238BD00224B4303F5D9
:10240C00B4710344014483F86921E0E70120F3E748
:10241C000220F1E738B5436801F00F029A420446F6
:10242C0026D811F0800F01F007024FF0280115D0CB
:10243C00012302FB011101444B7000250A708D70C1
:10244C0094F8A832012B15D00123206884F8A83207
:10245C0000F08FFD284684F8A85238BD01FB02F32A
:10246C0003F5B47101440344002083F86901E4E7E7
:10247C000120F2E70220F0E710B5282411F0800FBC
:10248C001BBF01F0070101FB044404FB0100001910
:10249C0008BF00F5B47099B21AB90273C18000205C
:1024AC0010BD012283600273F9E700002DE9F341AE
:1024BC00054638B30368DB0710D42B689F075ED43E
:1024CC002B68190700F195802B685A0700F1C18021
:1024DC00E869002840F02C81002029E0904C6368CA
:1024EC0003F00C03042B07D0636803F00C03082BD8
:1024FC000AD16368DE0307D523689C03DDD56B68BE
:10250C00002BDAD1012013E06B68B3F5803F12D1B8
:10251C00236843F480332360FEF7FAFA06462368F7
:10252C009803CAD4FEF7F4FA801B6428F7D9032069
:10253C0002B0BDE8F0819BB9236823F4803323609B
:10254C00236823F480232360FEF7E2FA064623680F
:10255C009903B2D5FEF7DCFA801B6428F7D9E6E7BD
:10256C00B3F5A02F236803D143F480232360CFE776
:10257C0023F480332360236823F48023CBE7684C57
:10258C00636813F00C0F07D0636803F00C03082B7F
:10259C0010D16368DA030DD423689B0702D52B692D
:1025AC00012BAFD123686A6923F0F80343EAC20315
:1025BC00236085E72A695B4B6AB101221A60FEF73A
:1025CC00A7FA064623689F07ECD4FEF7A1FA801BF6
:1025DC000228F7D9ABE71A60FEF79AFA0646236889
:1025EC0098077FF56DAFFEF793FA801B0228F6D99A
:1025FC009DE7AA694A4E4B4BE2B10122C3F88024F5
:10260C00FEF786FA0446736A9B070DD54FF4FA520F
:10261C00454B1B68B3FBF2F3019300BF019B5A1EA1
:10262C000192002BF9D14FE7FEF772FA001B02283A
:10263C00E9D97CE7C3F88024FEF76AFA0446736A8A
:10264C009F077FF541AFFEF763FA001B0228F6D90E
:10265C006DE7334CE369D80024D40127E36943F0D8
:10266C008053E361E36903F080530093009B2F4E8A
:10267C003368D90518D5EB68012B26D1236A43F0B2
:10268C0001032362FEF744FA41F288380646236AB6
:10269C009B073FD5002F3FF41BAFE36923F080531A
:1026AC00E36115E70027E2E7336843F48073336096
:1026BC00FEF72EFA80463368DA05DCD4FEF728FAEA
:1026CC00A0EB08006428F6D931E7ABB9236A41F2D4
:1026DC00883823F001032362236A23F00403236266
:1026EC00FEF716FA0646236A9807D3D5FEF710FABA
:1026FC00801B4045F7D91AE7052B236A03D143F019
:10270C0004032362BAE723F001032362236A23F054
:10271C000403B6E7FEF7FCF9801B4045B7D906E782
:10272C0000100240000042422C00002000700040CB
:10273C002A4C636803F00C03082B3ED00022284B74
:10274C0002281A662CD1FEF7E3F906462368990194
:10275C0020D42B6AB3F5803F05D16268A96822F4B6
:10276C0000320A436260696A62680B4322F4741295
:10277C001343012263601A4B1A66FEF7C9F905462A
:10278C0023689A013FF5A8AEFEF7C2F9401B022858
:10279C00F6D9CCE6FEF7BCF9801B0228D6D9C6E6E2
:1027AC00FEF7B6F9054623689B017FF595AEFEF75B
:1027BC00AFF9401B0228F6D9B9E601283FF4B8AEB0
:1027CC0063682A6A03F4803191427FF49BAE6A6A93
:1027DC0003F4701393423FF47FAE93E60010024073
:1027EC000000424230B5184B87B002AC03F1100523
:1027FC00224618685968083303C2AB421446F7D115
:10280C0040F201231149ADF804304B6803F00C027F
:10281C00082A17D1C3F3834218326A44DB0312F837
:10282C00100C0CD54B680A4AC3F340435043183381
:10283C006B4413F8143CB0FBF3F007B030BD054B00
:10284C005843FAE70248F8E7A04500080010024098
:10285C0000127A0000093D002DE9F0410D460446B6
:10286C0010B90120BDE8F081444A136803F0070356
:10287C008B4228D321688E0730D4CA0743D43F4AF1
:10288C00136803F00703AB4265D822683C4D12F085
:10289C00040F6CD1130706D56B68226923F46053BF
:1028AC0043EAC2036B60FFF79DFF6B68354AC3F3C5
:1028BC000313D35CD840344B1860344B1868FEF7C4
:1028CC00E5F80020CEE7136823F007030B431360F1
:1028DC00136803F007038B42C3D1CBE7284B11F0ED
:1028EC00040F1EBF5A6842F4E0625A60080742BFE8
:1028FC005A6842F460525A605A68A06822F0F0029A
:10290C0002435A60B9E762681D4E012A33681AD136
:10291C0013F4003FA5D0736841F2883823F0030309
:10292C0013437360FEF7F4F807467368626803F0AC
:10293C000C03B3EB820FA2D0FEF7EAF8C01B4045A4
:10294C00F3D903208EE7022A02D113F0007FE1E7CE
:10295C0013F0020FDEE7136823F007032B43136019
:10296C00136803F00703AB427FF47BAF8DE76B6812
:10297C00E16823F4E0630B436B608BE700200240BB
:10298C0000100240884500082C0000203400002074
:10299C00044B054A5B68C3F30223D35C034A1068FB
:1029AC00D840704700100240984500082C000020C9
:1029BC0003682DE9F341D907054621D5364CE36967
:1029CC00DA0033D40126E36943F08053E361E36911
:1029DC0003F080530193019B304F3B68DB0527D5F7
:1029EC00236A6A6813F4407336D1236A6A6823F445
:1029FC004073134323621EB1E36923F08053E361F8
:102A0C002868830706D52449AB684A6822F44042FB
:102A1C001A434A6010F010001BD01F4AE968536833
:102A2C00002023F480030B43536012E00026D3E70D
:102A3C003B6843F480733B60FEF76AF880463B6862
:102A4C00D805CDD4FEF764F8A0EB08006428F6D9BD
:102A5C00032002B0BDE8F08102F440729A42C4D067
:102A6C0001200F4A236AC2F84004002023F440716D
:102A7C00C2F840042162D907B7D5FEF749F841F2F4
:102A8C0088380746236A9A07AFD4FEF741F8C01B73
:102A9C004045F7D9DCE700BF001002400070004051
:102AAC000000424284B001A880E80E0004B000206F
:102ABC00704703464FF43F420020A3F84400A3F8AC
:102ACC0040207047B0F8403023F47C535B045B0C1F
:102ADC00A0F84030002070470020704784B010B53B
:102AEC00044603A880E80E0000200123A4F840301F
:102AFC00A4F84000A4F84400A4F85000BDE810402D
:102B0C0004B07047F0B50A78CD7830F8224003460F
:102B1C0024F4EC4424F070042404240C032D4ED82B
:102B2C00DFE805F0024A4846284644F4007448F2AF
:102B3C0080073C4323F8224033F82240904EA4B245
:102B4C0034401443274323F822700C7B03EB021709
:102B5C00002C40F08180CC8891F801C0640864009E
:102B6C00BCF1000F2DD0B3F8501089B23944A1F844
:102B7C00004433F822104F0609D533F8221089B2DD
:102B8C00314041F4004141F0C00123F8221033F8E8
:102B9C0022107C4C89B2012D01EA040101D081F094
:102BAC00200141F4004141F0800123F82210AEE0F5
:102BBC0044F4C0640020BAE744F48064FAE70120CE
:102BCC00B5E7B3F85050ADB23D44A5F80844B3F89E
:102BDC0050400D69A4B23C446DBBB4F80C1421F404
:102BEC00F8410904090CA4F80C14B4F80C146FEA9D
:102BFC0041416FEA514189B2A4F80C1433F8221008
:102C0C0049040DD533F8221021F4E04121F0700174
:102C1C000904090C41F4404141F0800123F82210D1
:102C2C0033F8221021F4804121F070010904090CC1
:102C3C0081F44051B5E73E2D05D86908EE0748BF31
:102C4C0001318902D7E76E094F49ED0608BF06F13D
:102C5C00FF3641EA8621CEE733F82240A4B2344055
:102C6C0044F4014444F0800423F82240B3F850406B
:102C7C00B1F808C0A4B24FEA5C0C3C444FEA4C0CCF
:102C8C00A4F800C4B3F85040A4B23C444F897F0868
:102C9C007F00A4F808744978D1BB33F822104F0494
:102CAC0009D533F8221089B2314041F4404141F04A
:102CBC00800123F8221033F822104D060DD533F87D
:102CCC00221021F4E04121F070010904090C41F4B7
:102CDC00004141F0C00123F8221048F2800433F87F
:102CEC00221021F4804121F070010904090C81F4B7
:102CFC004051214323F8221033F8221021F4E041F3
:102D0C0021F040010904090C0C4323F82240F0BDCA
:102D1C0033F822104C0409D533F8221089B2314013
:102D2C0041F4404141F0800123F8221033F8221085
:102D3C0049060DD533F8221021F4E04121F0700141
:102D4C000904090C41F4004141F0C00123F82210A0
:102D5C0033F822100B4C89B22140012D18BF81F0A1
:102D6C00200141F4004141F0800123F8221033F896
:102D7C00221021F4804121F070010904090C10E7A4
:102D8C008F8FFFFFBF8FFFFF0080FFFF4A780B780C
:102D9C00097BD9BB0AB330F8232051060DD530F886
:102DAC00232022F4E04222F070021204120C42F4AE
:102DBC00004242F0C00220F8232030F8232022F4F5
:102DCC00E04222F040021204120C42F4004242F0A3
:102DDC00800220F823200020704730F82320520472
:102DEC000DD530F8232022F4E04222F070021204B8
:102DFC00120C42F4404242F0800220F8232030F8BA
:102E0C00232022F4804222F07002DCE7002A4AD10F
:102E1C0030F8232051040DD530F8232022F4E04261
:102E2C0022F070021204120C42F4404242F0800272
:102E3C0020F8232030F8232052060DD530F823201B
:102E4C0022F4E04222F070021204120C42F400420E
:102E5C0042F0C00220F8232048F2800130F82320F1
:102E6C0022F4E04222F070021204120C42F40042EE
:102E7C0042F0C00220F8232030F8232022F48042B4
:102E8C0022F070021204120C0A4320F8232030F8AE
:102E9C00232022F4E04222F040021204120C1143CF
:102EAC0020F8231097E730F8232051040DD530F883
:102EBC00232022F4E04222F070021204120C42F49D
:102ECC00404242F0800220F8232030F823205206A2
:102EDC000DD530F8232022F4E04222F070021204C7
:102EEC00120C42F4004242F0C00220F8232048F2B7
:102EFC00800130F8232022F4E04222F07002120408
:102F0C00120C42F4404242F0800220F8232030F8A8
:102F1C00232022F4E04222F040021204120C0A4355
:102F2C0020F8232030F8232022F4804222F0700273
:102F3C00B3E74B780A788BB130F8223023F4E043B6
:102F4C0023F040031B041B0C83F0100343F40043D9
:102F5C0043F0800320F822300020704730F82230F4
:102F6C0023F4804323F070031B041B0C83F4805365
:102F7C00ECE70B7B3BBB4B780A7833B330F8223051
:102F8C005B060DD530F8223023F4E04323F07003B8
:102F9C001B041B0C43F4004343F0C00320F8223005
:102FAC00CB78012B0FD030F8223023F4E04323F000
:102FBC0040031B041B0C83F0200343F4004343F039
:102FCC00800320F822300020704730F822305B0458
:102FDC000DD530F8223023F4E04323F070031B04AA
:102FEC001B0C43F4404343F0800320F8223030F8AC
:102FFC00223023F4804323F070031B041B0C83F456
:10300C004053DAE711B98023A0F84C300020704708
:10301C000020704700207047B0F8440080B2704721
:10302C000020704700EB4200013300F580605B0824
:10303C0000EB8303984200D1704731F8022B20F843
:10304C00042BF7E72DE9F0470C4649780546012992
:10305C00227B40F08581D4F81080A76961694745CF
:10306C0028BF47460ABBBFB2E2883B46FFF7DAFFF0
:10307C00B5F85000217880B205F2044209010244EF
:10308C008F52227835F8223023F4E04323F04003AA
:10309C001B041B0C83F03003002043F4004343F06B
:1030AC00800325F82230BDE8F087E37894F800E03F
:1030BC00022B266A4FEA0E1C40F0B880B04580F017
:1030CC009A8030F82E30F61B23F4E04323F0700383
:1030DC001B041B0C43F4014343F0800320F82E30F7
:1030EC0030F82E90B0F850E019F040092662BBB2CF
:1030FC0001EB070A1FFA8EFE3FD000F20C4272441D
:10310C0022F80C306289FFF78DFFB04536BFF31BF8
:10311C0000233E4662782362C4F814A0B3B2002A9E
:10312C0040F0D280B5F85000217880B205F204420C
:10313C000901024486B9885A20F4F8400004000CB6
:10314C008852885A6FEA40406FEA504080B28852E9
:10315C0022895146284666E03E2E05D87008F607AF
:10316C0048BF01308002F1E77709F0068B4808BFB1
:10317C0007F1FF3740EA8720E8E700F20442724487
:10318C0022F80C302289FFF74DFFB04536BFF31BF8
:10319C004B463E4662782362C4F814A0B3B2002AB0
:1031AC0040F0D180B5F85000217880B205F20C4285
:1031BC000901024476B9885A20F4F8400004000C46
:1031CC008852885A6FEA40406FEA504080B2885269
:1031DC006289BEE73E2E05D87008F60748BF01305D
:1031EC008002F3E77709F0066C4808BF07F1FF3758
:1031FC0040EA8720EAE730F82E2022F4E24222F05F
:10320C0070021204120C42F4004242F0800220F8C8
:10321C002E20B0F8503000F204429BB21A44B3B2E4
:10322C0022F80C302289FFF7FDFE2AE730F82E2019
:10323C00F61B22F4E04222F070021204120C42F44B
:10324C00014242F0800220F82E2030F82E90B0F887
:10325C0050E019F040092662BBB201EB070A1FFAD5
:10326C008EFE3ED000F20C42724422F80C30628981
:10327C00FFF7D8FEB04536BFF31B00233E46C4F81B
:10328C0014A02362002E3FF4FCAE6278B3B2DAB91C
:10329C00B5F85020207892B205F204413E2E4FEA48
:1032AC000010114407D87208F60748BF0132920289
:1032BC0092B242524CE77709F206384A08BF07F13E
:1032CC00FF3742EA8722F3E7012A7FF441AFB5F8D2
:1032DC005000217880B205F20442090102448B525D
:1032EC0036E700F20442724422F80C302289FFF7D0
:1032FC0099FEB04536BFF31B4B463E46C4F814A0AE
:10330C002362002E3FF4BDAE6278B3B2DAB9B5F8E1
:10331C005020207892B205F20C413E2E4FEA00105C
:10332C00114407D87208F60748BF0132920292B2D4
:10333C0042524DE77709F206184A08BF07F1FF37EA
:10334C0042EA8722F3E7012A7FF442AFB5F8500036
:10335C00217880B205F20C42090102448B5237E706
:10336C00F2B9A3692169B0F850008B4284BF5A1A94
:10337C000B462178A26180B205F20C42090102448D
:10338C00002B00F0C7803E2B00F2D2805808DE07DD
:10339C0048BF0130800280B250524AE00080FFFFEB
:1033AC00E378022B79D151BBB0F8503000F20442D3
:1033BC009BB221781A4423690901002B45D1885A04
:1033CC0020F4F8400004000C8852885A6FEA404000
:1033DC006FEA504080B28852B5F85000227880B223
:1033EC0005F20C4112010144002B3FD03E2B4BD86F
:1033FC005808DB0748BF0130800280B25052E369A5
:10340C00BBB144F24003227835F8221003EA0100E4
:10341C008B4300D068B935F8223023F4E04323F015
:10342C0070031B041B0C43F4004343F0C00325F84A
:10343C002230227835F8223023F4804323F07003B5
:10344C001B041B0C83F4405326E63E2B05D858086E
:10345C00DE0748BF01308002BCE75E09D8063A4857
:10346C0008BF06F1FF3640EA8620B3E7535A23F42F
:10347C00F8431B041B0C5352535A6FEA43436FEA35
:10348C0053439BB25352BAE75809DF062E4B08BF81
:10349C0000F1FF3043EA8023F3E7012B51D1A369FC
:1034AC002269934294BF0020981AA06188BF1346EA
:1034BC000029BED1B5F85000217880B205F2044243
:1034CC0009010244ABB9885A20F4F8400004000CFE
:1034DC008852885A6FEA40406FEA504080B2885256
:1034EC00B5F85000227880B205F20C41120101446B
:1034FC0046E73E2B05D85808DE0748BF013080024E
:10350C00ECE75E091048DF0608BF06F1FF3640EA1B
:10351C008620E3E7535A23F4F8431B041B0C535245
:10352C00535A6FEA43436FEA53439BB2535280E7BB
:10353C005809DB06044B08BF00F1FF3043EA802337
:10354C00F3E70120AFE500BF0080FFFF00EB420076
:10355C00F0B500F580605D080C4607462E46023437
:10356C0036B9DB0744BF30F8253001F81530F0BD13
:10357C0037F8042B013E92B204F8022C120A04F81C
:10358C00012CECE7D0F8BC3210B56BB1D0F8B842D6
:10359C0094F80002FF2807D09B68214694F801227A
:1035AC009847FF2384F80032002010BD432303808A
:1035BC000048704770000020432303800048704788
:1035CC00B40000204323038000487047040100200E
:1035DC000A23038000487047F800002038B50446E1
:1035EC00D0F8B85200F077FFD4F8B832C5F80C0216
:1035FC004BB1D4F8BC32D5F80402DB6805F5037185
:10360C009847002038BD0220FCE7F8B5D0F8B86226
:10361C00D6B1142404FB0103DC69D0F8C0527CB190
:10362C00282707FB0152926BB4FBF2F502FB154401
:10363C0034B9DC612246234600F03BFF2046F8BD3E
:10364C000020C6F81402FAE70220F8E72DE9F74348
:10365C004FF000080A78054612F060040E46D0F8C8
:10366C00B8728DF80580ADF8068028D0202C42D198
:10367C00CC884B78E4B1120611D5D0F8BC2239466F
:10368C00D2F8089018462246C84739462846F28890
:10369C0000F047FC4446204603B0BDE8F0832246C8
:1036AC00394687F8003287F8014200F04FFCF1E709
:1036BC00D0F8BC22184695682246A847EBE74B7811
:1036CC000A2B0CD00B2B12D0ABB990F89C32032BDD
:1036DC0011D102220DF1060100F023FCDBE790F87A
:1036EC009C32032B07D101220DF10501F4E790F870
:1036FC009C32032BCFD03146284600F0EBFB022442
:10370C00C9E738B504460025812100F09CFE012153
:10371C002046E56200F097FE82212046C4F86C51E9
:10372C0000F091FED4F8B83225644BB1D4F8BC3219
:10373C005B689847D4F8B80200F0D6FEC4F8B852CB
:10374C00002038BD2DE9F041037C0446B3BB4FF497
:10375C0000738121022200F06AFE01214FF40073F4
:10376C00E16201260222204600F061FE08230322BA
:10377C0082212046C4F86C6100F059FE4FF40770AA
:10378C00266400F0ADFE0546C4F8B80240B34FF015
:10379C000008D4F8BC321B689847C5F81482C5F8E9
:1037AC001882277C9FB94FF4007331462046D5F818
:1037BC00042200F087FE3846BDE8F08140238121C9
:1037CC00022200F034FE01214023E162C9E74023CC
:1037DC0031462046D5F8042200F074FE4746EAE74D
:1037EC003746E8E719B1C0F8BC1200207047022038
:1037FC007047D0F8B8320020C3F80812C3F8102272
:10380C007047D0F8B8320020C3F804127047D0F8D3
:10381C00B82210B582B1D2F81442012374B9C2F89F
:10382C001432D2F8103281210363D2F808229BB2F1
:10383C0000F03FFE204610BD0220FCE71846FAE7D8
:10384C00D0F8B82210B582B1047CD2F8042234B975
:10385C004FF40073012100F035FE204610BD4023CB
:10386C00012100F02FFE0024F7E70224F5E708B54C
:10387C0080B1D0F8B43213B10023C0F8B43209B11E
:10388C00C0F8B0120123027080F89C3200F084FD65
:10389C00002008BD0220FCE719B1C0F8B4120020CA
:1038AC0070470220704708B500F0B8FD002008BD35
:1038BC0008B5D0F8B43233B11B689847003818BF3C
:1038CC000120400008BD0220FCE708B5D0F8B43256
:1038DC005B689847002008BD38B500F52A7504468A
:1038EC00284600F0E3FA012394F8A812C4F89432A5
:1038FC00B4F8AE32C4F8983201F01F03012B08D093
:10390C00022B0BD07BB92946204600F0FBF8002097
:10391C0038BD2946204600F01DFAF8E72946204616
:10392C0000F03CFAF3E7204601F0800100F094FD32
:10393C00EDE7F8B5044617460D4639BBD0F894327E
:10394C00032B1CD1D0E9586296420BD9B61AB2425D
:10395C003946C0F860618CBFB2B292B200F003FB82
:10396C002846F8BDD0F8B4321B6923B190F89C22DC
:10397C00032A00D19847204600F0FDFAF0E7052B0A
:10398C00EED1C4F8941200F067FDE9E7D0F8B43238
:10399C009B6933B190F89C22032A02D198470025E9
:1039AC00DEE70225DCE7F8B5044617460D4600298C
:1039BC0047D1D0F89432022B3CD1D0E908639E4217
:1039CC0014D9F61A39460662B2B200F0B7FA2B4691
:1039DC002A462946204600F075FD94F8A032012BAA
:1039EC0002D1002384F8A0322846F8BDC269B2FB8C
:1039FC00F3F603FB16265EB9934209D8D0F8983239
:103A0C009A4205D20A4600F099FAC4F89852DEE7B9
:103A1C00D4F8B432DB682BB194F89C22032A01D180
:103A2C00204698478021204600F016FD204600F0E5
:103A3C00ADFAD2E733F00403CFD1802100F00CFDB6
:103A4C00CBE7D0F8B4325B6933B190F89C22032AEF
:103A5C0002D198470025C7E70225C5E7002270B5BB
:103A6C000446012540261146402300F0E0FC334675
:103A7C00802100222046C4F85851C4F8646100F03B
:103A8C00D6FC0021D4F8B832A561666284F89C5249
:103A9C00C4F894126160C4F8A41223B1D4F8B432FF
:103AAC0020465B689847002070BD01740020704769
:103ABC0090F89C3280F89D32042380F89C320020D0
:103ACC00704790F89C32042B04BF90F89D3280F81C
:103ADC009C320020704708B590F89C22032A04D130
:103AEC00D0F8B432DB6903B19847002008BD10B59B
:103AFC000446802100F0B0FC2046BDE810400021B7
:103B0C0000F0AABC37B50B78044603F06003202BF9
:103B1C000D4612D0402B10D0002B51D14B78092BD5
:103B2C004ED8DFE813F0EE0009014D0002014D0004
:103B3C00870013004D00D600A300D4F8B4322946F8
:103B4C0020469B689847002003B030BD0023ADF899
:103B5C0006304B881A0A013A062A31D8DFE802F0FF
:103B6C000416233030485200D0F8B0321B68207C49
:103B7C000DF106019847BDF80620EB88002A55D0B8
:103B8C00002B4AD1204600F0F6F9DCE7027CD0F895
:103B9C00B43232B99B6A0DF1060098470223437088
:103BAC00E9E7DB6AF7E7DBB2052B09D8DFE803F0BE
:103BBC00030C1014181CD0F8B0325B68002BD6D153
:103BCC002046FFF794FFBEE7D0F8B0329B68F5E7CC
:103BDC00D0F8B032DB68F1E7D0F8B0321B69EDE712
:103BEC00D0F8B0325B69E9E7D0F8B0329B69E5E711
:103BFC00037C002BE4D1D0F8B4320DF106005B6BE2
:103C0C009847B8E7037C002BDAD1D0F8B4320DF129
:103C1C0006001B6B98470723C1E79A4228BF1A4638
:103C2C0001462046ADF8062000F07BF9EB88002B0E
:103C3C0089D1A7E78B88002BC2D1CB88002BBFD1B1
:103C4C004D887F2DBCD890F89C32032BB8D0E9B2AC
:103C5C0080F89E1200F024FC204600F08CF91DB177
:103C6C00022384F89C326EE70123FAE78978384DF9
:103C7C0001292970A4D890F89C32022B08D0032B70
:103C8C0015D0FFF734FF20462978FFF71EFE5AE7C0
:103C9C0000293FF477AF01210323416080F89C3267
:103CAC002046FFF705FE02287FF46CAF88E731B998
:103CBC000223416080F89C32FFF707FE62E74168FF
:103CCC0001293FF45FAFC9B2FFF7FFFD29786160AE
:103CDC00E6E7CA88012A7FF473AF90F89C32022B76
:103CEC000AD8002B3FF46CAF0146002341F8083F83
:103CFC00204600F016F926E7032B7FF461AF011D77
:103D0C00F6E790F89C32013B022B3FF659AFCA887C
:103D1C00022A7FF455AFD0F8A4320146002B14BF11
:103D2C000323012341F80C3FE2E74B88012B7FF47E
:103D3C000AAFC4F8A43225E790F89C32013B022B61
:103D4C003FF63EAF4B88012B7FF4FDAE0023F0E72E
:103D5C003803002038B50B78044603F06002402A83
:103D6C000D4601D05B0615D494F89C32013B022B16
:103D7C0010D82B79012B0DD8D4F8B43229469B6876
:103D8C0020469847EB881BB910B9204600F0F3F891
:103D9C00002038BD2046FFF7AAFEF9E738B50A78AF
:103DAC00044602F06002202A0B468D882CD0402A53
:103DBC002AD0BABB5A78E9B2012A43D0032A2BD0B5
:103DCC0082BB90F89C32022B53D0032B2AD11422A5
:103DDC0001F00F0315F0800F02FB03035AD09B690F
:103DEC0003B3142501F07F0303FB0555054411F0C3
:103DFC007F0005D0204600F041FB003818BF0120A1
:103E0C0002222946286041E0D4F8B4221946204603
:103E1C0092689047002038BD90F89C22022A1FD04F
:103E2C00032A03D02046FFF762FEF3E75A882AB92B
:103E3C004A0603D0DB880BB900F00EFB204600F0DD
:103E4C009AF8E7E790F89C22022A09D0032AE9D1D4
:103E5C005B88002BDED14D06F0D000F006FBEDE7C1
:103E6C004B06DFD000F0F8FA8021204600F0F4FA7F
:103E7C00D0E74A06D6D12B064FF000034FF00202D2
:103E8C004CBF00F1140100F5AA710B60204600F044
:103E9C0048F8BFE7D3F85831002BC3D0142301F0F6
:103EAC007F0503FB050505F5AA75A0E70B780370E4
:103EBC004B784370CA788B7803EB022343804A79A2
:103ECC000B7903EB02238380CA798B7903EB0223F2
:103EDC00C380704710B50446802100F0BDFA20461F
:103EEC00BDE81040002100F0B7BA30B588B100240D
:103EFC00013823460134055D002DFAD1DBB20133C4
:103F0C005B0013800B7003234B70022310F8014FDE
:103F1C0004B930BD5A1CCC54D2B20233DBB28D542E
:103F2C00F4E71346022210B5C0E90733C0F8942217
:103F3C000A46002100F0BDFA002010BD08B513465A
:103F4C000A46002100F0B5FA002008BD13460322F2
:103F5C0010B5C0E95733C0F894220A46002100F08E
:103F6C00B1FA002010BD08B513460A46002100F036
:103F7C00A9FA002008BD08B50423C0F89432002328
:103F8C001A46194600F095FA002008BD08B505231D
:103F9C00C0F8943200231A46194600F093FA002018
:103FAC0008BD00001FB54FF4805401230222CDE957
:103FBC000043032369461548CDE90223FCF724FE90
:103FCC00002221461148FCF7F9FE6420FCF7A6FDFF
:103FDC0000220F490F48FFF74AFC08B1FCF7C6FC5A
:103FEC000D490C48FFF758FC08B1FCF7BFFC0B4916
:103FFC000848FFF7F7FB08B1FCF7B8FC0548FFF7DA
:10400C0052FC08B1FCF7B2FC04B010BD0008014032
:10401C00580100203C0300203800002048010020FB
:10402C0000207047F8B50D46044601460F48FFF7CF
:10403C00E8FB00220E482D7803880E4E0E4F9BB2E3
:10404C00AA4205D303800948FFF7FAFB0020F8BD0C
:10405C00A15CF15439880133C3F3080389B2994246
:10406C0001D00132ECE70220F1E700BF3C03002055
:10407C00080C0020070A00200A0C002010B50B4C7D
:10408C00002220460A49FFF7B4FB20460949FFF7F6
:10409C00B8FB8022084B00201A7025225A70082287
:1040AC009870D870187158719A7110BD3C0300202B
:1040BC000008002000060020000A002010B5094C62
:1040CC000A46D4F8B832D3F8143243B90146204624
:1040DC00FFF78FFB2046BDE81040FFF798BB01208F
:1040EC0010BD00BF3C030020034B1888034B1B88FA
:1040FC00C01AC0F308007047080C00200A0C0020FE
:10410C0070B50246FFF7F0FF884214D300230B482A
:10411C000B4EDCB28C4203F1010501D3002070BDC3
:10412C0003889BB2F35C135503880133C3F3080374
:10413C0003802B46EDE70120F1E700BF0A0C0020BD
:10414C00070A00204FF4007208B50021044800F063
:10415C0001FA0023034A1380034A138008BD00BFF1
:10416C00070A0020080C00200A0C0020202808B5A3
:10417C0003D0212811D0002008BD0A78104B1A70EA
:10418C004A785A708A789A70CA78DA700A791A71F1
:10419C004A795A718A799A71EDE7094B1A780A7043
:1041AC005A784A709A788A70DA78CA701A790A71D1
:1041BC005A794A719B798B71FFF7C4FFDBE700BF1B
:1041CC00000A0020122301480B8070477401002064
:1041DC00042301480B80704788010020002370B530
:1041EC001E464D1C040FB0F1204F34BF3034373411
:1041FC0001F8134005F813600133DCB2A2424FEA18
:10420C000010EFD870BD00001A2310B50B800A4BBC
:10421C00D3F8E807D3F8F02780180AD0D3F8EC4786
:10422C0006490822FFF7DAFF042220461031FFF777
:10423C00D5FF034810BD00BF00F0FF1F8E0100200A
:10424C008C01002010B5044C0A4604482146FFF7A7
:10425C004CFE204610BD00BF0C0C0020B1450008E0
:10426C0010B5044C0A4604482146FFF73EFE204692
:10427C0010BD00BF0C0C0020C445000810B5044C48
:10428C000A4604482146FFF730FE204610BD00BF09
:10429C000C0C0020DA45000810B5044C0A46044802
:1042AC002146FFF722FE204610BD00BF0C0C00205B
:1042BC00E545000803289ABF014B185C02207047A3
:1042CC00F345000807B5124B02689A421DD103F55D
:1042DC00DA33DA69132042F40002DA610022DB6976
:1042EC00114603F400030193019BFCF73BFC1320E4
:1042FC00FCF768FC002214201146FCF733FC142058
:10430C0003B05DF804EBFCF75DBC03B05DF804FB97
:10431C00005C004000F52C71D0F8E802FFF7DCBA25
:10432C00282303FB0103D0F8E802D3F87C21FFF724
:10433C0000BB282303FB0103D0F8E802DA6BFFF77C
:10434C0032BBD0F8E802FFF7C6BB836810B5022B6E
:10435C00044601D0FCF70AFBD4F8E8020121FFF770
:10436C00A4FBD4F8E802BDE81040FFF777BB0000CF
:10437C0010B50446D0F8E802FFF79AFBA36923B105
:10438C00024A136943F00603136110BD00ED00E00F
:10439C00D0F8E802FFF795BB082310B51D4A044678
:1043AC001D48C0E90023022383600023C0F8E842C3
:1043BC00C4F8C002C0E906330362FDF707FA08B17E
:1043CC00FCF7D4FA002218231146D4F8C002FEF7E9
:1043DC0053F8582300228021D4F8C002FEF74CF881
:1043EC00C02300228121D4F8C002FEF745F84FF417
:1043FC00887300220121D4F8C002FEF73DF84FF477
:10440C00807300228221D4F8C002FEF735F8002018
:10441C0010BD00BF005C00400C0E002008B5D0F8A9
:10442C00C002FDF74CFABDE80840FFF743BF10B5DA
:10443C001446D0F8C0021A462346FDF723FFBDE808
:10444C001040FFF737BF08B5D0F8C002FDF74CFF9E
:10445C00BDE80840FFF72EBF08B5D0F8C002FDF745
:10446C00A5FFBDE80840FFF725BF08B5D0F8C0028E
:10447C00FDF7D0FFBDE80840FFF71CBF282211F064
:10448C00800FD0F8C0321BBF01F07F0101FB02226C
:10449C0002FB01339B1814BF987893F86A0170479C
:1044AC0008B5D0F8C002FDF723FABDE80840FFF7C5
:1044BC0001BF08B5D0F8C002FDF75EFFBDE80840AB
:1044CC00FFF7F8BE08B5D0F8C002FDF736FFBDE81F
:1044DC000840FFF7EFBED0F8C002FDF745BF000063
:1044EC0000487047F81000207047704770B50026E0
:1044FC000C4D0D4C641BA410A64209D100F032F8EF
:10450C0000260A4D0A4C641BA410A64205D170BDAE
:10451C0055F8043B98470136EEE755F8043B9847AD
:10452C000136F2E7F8450008F8450008F8450008A0
:10453C00FC45000810B501390244904201D100201D
:10454C0005E0037811F8014FA34201D0181B10BDF0
:10455C000130F2E703460244934200D1704703F85E
:10456C00011BF9E7F8B500BFF8BC08BC9E467047C4
:0C457C00F8B500BFF8BC08BC9E467047B4
:1045880000000000000000000102030406070809FB
:1045980000000000010203040203040506070809DD
:1045A8000A0B0C0D0E0F10100053544D6963726FF7
:1045B800656C656374726F6E6963730053544D3331
:1045C80032205669727475616C20436F6D506F723A
:1045D800740043444320436F6E6669670043444355
:1045E80020496E746572666163650000020102000D
:0445F8003101000885
:0445FC000D010008A5
:1046000088130000000000000000000050000008B7
:1046100010000100540000202000020000000020D3
:104620002000010054000080400002000024F4003B
:104630000100000010000000513700080F3700088B
:1046400059360008000000009135000817360008B0
:10465000E935000800000000000000000000000034
:10466000C5350008B9350008D1350008DD3500082A
:1046700009024300020100C03209040000010202E5
:104680000100052400100105240100010424020298
:104690000524060001070582030800100904010033
:1046A000020A000000070501024000000705810220
:1046B0004000000009024300020100C0320904006A
:1046C000000102020100052400100105240100017F
:1046D00004240202052406000107058203080010D5
:1046E00009040100020A000000070501020002009F
:1046F00007058102000200000A06000200000040D7
:104700000100000009074300020104C0320904004F
:10471000000102020100052400100105240100012E
:104720000424020205240600010705820308001084
:1047300009040100020A0000000705010240000010
:104740000705810240000000894000082D40000854
:104750007941000831400008D1410008DD410008DE
:10476000514200086D4200081542000889420008C5
:10477000A5420008120100020202004083044057D3
:104780000002010203010000040309041A030000EF
:104790000000000000000000000000000000000019
:0847A000000000000000000011
:0400000508000A4D98
:00000001FF
